:100000000C9434000C9449000C9449000C94490061
:100010000C9449000C9449000C9449000C9449003C
:100020000C9449000C9449000C9449000C9449002C
:100030000C9449000C9449000C9449000C9449001C
:100040000C9449000C9449000C9449000C9449000C
:100050000C9449000C9449000C9449000C944900FC
:100060000C9449000C94490011241FBECFEFD8E036
:10007000DEBFCDBF11E0A0E0B1E0EEEDF1E002C0E7
:1000800005900D92A231B107D9F70E9484000C941B
:10009000ED000C940000FC012081222329F0319610
:1000A00020B921912111FCCF08950F931F93CF9375
:1000B000DF93CDB7DEB761970FB6F894DEBF0FBE02
:1000C000CDBF8C0122273327C8018627972740E11F
:1000D000BE016F5F7F4F0E94B80084E091E00E94F4
:1000E0004B00CE0101960E944B0080E191E00E94FE
:1000F0004B0061960FB6F894DEBF0FBECDBFDF9107
:10010000CF911F910F91089540E050E061E87FEF9B
:100110008FEF9FEF0E94550040E050E060E070E0FC
:10012000CB010E9455008091000190910101A091A6
:100130000201B0910301BC01CD0140E050E00E94FA
:10014000550084E090E0A0E0B0E08093000190933F
:100150000101A0930201B093030140E050E068E088
:1001600070E080E090E00E94550080E090E008950B
:10017000BB274A3031F4992322F4BDE29095819552
:100180009F4F0C94C400BB27FB015527AA27880F5B
:10019000991FAA1FA41710F0A41B83955051B9F7FB
:1001A000A05DAA3308F0A95DA193009779F7B1117A
:1001B000B1931192CB010C94DD00DC01FC01672F9F
:1001C00071917723E1F7329704C07C916D9370832E
:0E01D0006291AE17BF07C8F30895F894FFCFF1
:1001DE00FCFFFFFF636865636B73756D203D200048
:0201EE000A0005
:00000001FF
